:100000000A128A11442900308A000408840A8207EF
:10001000003443347934743472346F346E342034A1
:10002000543465346334683400344C345F344334BE
:100030004C344B3400344D345F3443344C344B3403
:10004000003452345F3443344C344B34003458342D
:100050006134783469347334003459346134783419
:10006000693473340034503453342F343234003410
:100070006634613469346C34003470346134733400
:0400800073340034A1
:1001F000F00070088312031388000800F101031453
:10020000F10D00300A128A11A1210A128A11080088
:10021000C030F5007508F10000300A128A11A121E2
:100220000A128A110800F000701817291B2983127E
:10023000031386161E298312031386120800F0008A
:100240007018232927298312031306162A298312DB
:10025000031306120800F6007608F5007508F10091
:1002600001300A128A11A1210A128A110800F6002F
:1002700076088038F5007508F10000300A128A11FE
:10028000A1210A128A110800B701B801B901BA0107
:10029000BB01BC01BD01BE01BF01C001C1018301A1
:1002A0000A128A11CD2E5C290730F3007D30F2004E
:1002B000F20B5829F30B58290130F0020030031CCF
:1002C000F103F102FF307106031D6829FF3070064B
:1002D000031D6B296C2954296D29080001300A126D
:1002E0008A1113210A128A116230F6006530F50076
:1002F000F50B7829F60B78297D293830F50075083B
:10030000F10000300A128A11A1210A128A11063066
:10031000F5007508F10000300A128A11A1210A12B5
:100320008A110C30F5007508F10000300A128A11AC
:10033000A1210A128A110A128A11FE200A128A11B8
:100340000800F40074080A128A111F210A128A1187
:1003500071080A128A11F8200A128A1101300A1251
:100360008A1113210A128A110730F3007D30F2003E
:10037000F20BB829F30BB82900300A128A111321A5
:100380000A128A110D30F300FB30F200F20BC6297D
:10039000F30BC629CB2900300A128A111F210A1239
:1003A0008A1100300A128A11F8200A128A110800F4
:1003B000F8000B2A780884000A128A1103200A1216
:1003C0008A110A3A0319E529E629F32978088400F5
:1003D0000A128A1103200A128A110D3A031DF1290B
:1003E000F229F929F3290A128A1108210A128A111D
:1003F000062A780884000A128A1103200A128A1138
:100400000A128A112B210A128A11062A0130F700DA
:100410007708F8070B2A780884000A128A1103204B
:100420000A128A110038031D162A172ADA29182AF7
:100430000800F30073085539F00001300310F00D87
:10044000FF3E031D1E2A7308F1000310710C55397D
:100450007004F2007208F30073083339F0000230C0
:100460000310F00DFF3E031D302A7308F100023027
:100470000310F10CFF3E031D382A71083339700454
:10048000F2007208F30073080F39F0000430031013
:10049000F00DFF3E031D472A7308F10004300310DE
:1004A000F10CFF3E031D4F2A71080F397004F20052
:1004B0007208F30073085C2A0800710870040319BD
:1004C000622A632A992AF5010314F50D732A013073
:1004D0000310F00DF10DFF3E031D682A0130F400FA
:1004E0007408F507732AF11F762A772A672A792A72
:1004F000792A71087302031D7F2A70087202031C97
:10050000822A832A8A2A7008F2027108031CF303E4
:10051000F3028A2A01300310F10CF00CFF3E031D98
:100520008B2A0130F502031D962A972A792A992AE7
:10053000992A7308F101F1077208F001F007A02A67
:1005400008000030F5000030F6007108700403194F
:10055000AA2AAB2AE92AF7010314F70DBB2A0130B6
:100560000310F00DF10DFF3E031DB02A0130F40021
:100570007408F707BB2AF11FBE2ABF2AAF2AC12A77
:10058000C12A01300310F50DF60DFF3E031DC22AEE
:1005900071087302031DCE2A70087202031CD12A4F
:1005A000D22ADA2A7008F2027108031CF303F3025C
:1005B0007514DA2A01300310F10CF00CFF3E031D14
:1005C000DB2A0130F702031DE62AE72AC12AE92ABD
:1005D000E92A7608F101F1077508F001F007F02A21
:1005E0000800F90040300A128A1137210A128A11D4
:1005F0007908093A031DFD2AFE2A052B0D300A123F
:100600008A11D8210A128A11432B79080A3A031D4C
:100610000A2B0B2B122B19300A128A11D8210A121D
:100620008A11432B79080C3A031D172B182B1F2B0B
:1006300013300A128A11D8210A128A11432B790821
:10064000283A031D242B252B2C2B25300A128A1126
:10065000D8210A128A11432B7908183A031D312B2D
:10066000322B392B1F300A128A11D8210A128A1113
:10067000432B0A128A11FE200A128A11432B432BA4
:10068000432B432B432B080083120313071683309D
:100690008316031387008312031307168711A630EE
:1006A000F000F00B512B64008312031307128B3000
:1006B0008316031387004230F000F00B5D2B6400BB
:1006C000612B831203138719662B672B612B071687
:1006D000692B87196C2B6D2B692B6F2B6F2B871D4B
:1006E000722B732B6F2B742B1030F000F00B762BCA
:1006F00064008312031307167D2B8719802B812B2F
:100700007D2B832B832B871D862B872B832B882B7D
:100710001030F000F00B8A2B6400831203130716CD
:10072000912B8719942B952B912B972B972B871D0A
:100730009A2B9B2B972B9C2B1030F000F00B9E2BB1
:100740006400831203130716A52B8719A82BA92B66
:10075000A52BAB2BAB2B871DAE2BAF2BAB2BB02B15
:100760001030F000F00BB22B640083120313071655
:10077000B92B8719BC2BBD2BB92BBF2BBF2B871DCA
:10078000C22BC32BBF2BC42B1030F000F00BC62B99
:100790006400831203130716CD2B8719D02BD12B9E
:1007A000CD2BD32BD32B871DD62BD72BD32BD82BAD
:1007B0001030F000F00BDA2B6400831203130716DD
:1007C000E12B8719E42BE52BE12BE72BE72B871D8A
:1007D000EA2BEB2BE72BEC2B1030F000F00BEE2B81
:1007E0006400831203130716F52B8719F82BF92BD6
:1007F000F52BFB2BFB2B871DFE2BFF2BFB2B002C44
:100800001030F000F00B022C640083120313071663
:10081000092C87190C2C0D2C092C0F2C0F2C871D43
:10082000122C132C0F2C142C1030F000F00B162C63
:1008300064009B30831603138700080083120313A0
:1008400007168330831603138700831203130716DA
:100850008711A630F000F00B2B2C640083120313D9
:1008600007128B308316031387004230F000F00B21
:10087000372C64003B2C831203138719402C412C26
:100880003B2C0712432C8719462C472C432C492C10
:10089000492C871D4C2C4D2C492C4E2C1030F0002F
:1008A000F00B502C6400831203130716572C871982
:1008B0005A2C5B2C572C5D2C5D2C871D602C612CD9
:1008C0005D2C622C1030F000F00B642C640083125D
:1008D000031307166B2C87196E2C6F2C6B2C712C45
:1008E000712C871D742C752C712C762C1030F00017
:1008F000F00B782C64008312031307127F2C8719E6
:10090000822C832C7F2C852C852C871D882C892C70
:10091000852C8A2C1030F000F00B8C2C6400831294
:1009200003130716932C8719962C972C932C992C2C
:10093000992C871D9C2C9D2C992C9E2C1030F000FE
:10094000F00BA02C6400831203130716A72C871941
:10095000AA2CAB2CA72CAD2CAD2C871DB02CB12C08
:10096000AD2CB22C1030F000F00BB42C64008312CC
:1009700003130716BB2C8719BE2CBF2CBB2CC12C14
:10098000C12C871DC42CC52CC12CC62C1030F000E6
:10099000F00BC82C6400831203130716CF2C8719A1
:1009A000D22CD32CCF2CD52CD52C871DD82CD92CA0
:1009B000D52CDA2C1030F000F00BDC2C6400831204
:1009C00003130716E32C8719E62CE72CE32CE92CFC
:1009D000E92C871DEC2CED2CE92CEE2C1030F000CE
:1009E000F00BF02C64009B30831603138700080083
:1009F00083120313071683308316031387008312B1
:100A0000031307168711A630F000F00B052D6400C4
:100A10008312031307128B308316031387004230AF
:100A2000F000F00B112D6400152D831203138719AC
:100A30001A2D1B2D152D07121D2D8719202D212D47
:100A40001D2D232D232D871D262D272D232D282DCC
:100A50001030F000F00B2A2D6400831203130712EC
:100A6000312D8719342D352D312D372D372D871DFB
:100A70003A2D3B2D372D3C2D1030F000F00B3E2D44
:100A80006400831203130716452D8719482D492D3D
:100A9000452D4B2D4B2D871D4E2D4F2D4B2D502D64
:100AA0001030F000F00B522D640083120313071274
:100AB000592D87195C2D5D2D592D5F2D5F2D871DBB
:100AC000622D632D5F2D642D1030F000F00B662D2C
:100AD00064008312031307166D2D8719702D712D75
:100AE0006D2D732D732D871D762D772D732D782DFC
:100AF0001030F000F00B7A2D6400831203130716F8
:100B0000812D8719842D852D812D872D872D871D7A
:100B10008A2D8B2D872D8C2D1030F000F00B8E2D13
:100B20006400831203130716952D8719982D992DAC
:100B3000952D9B2D9B2D871D9E2D9F2D9B2DA02D93
:100B40001030F000F00BA22D64008312031307167F
:100B5000A92D8719AC2DAD2DA92DAF2DAF2D871D3A
:100B6000B22DB32DAF2DB42D1030F000F00BB62DFB
:100B70006400831203130712BD2D8719C02DC12DE8
:100B8000BD2DC32DC32D871DC62DC72DC32DC82D2B
:100B90001030F000F00BCA2D64009B308316031355
:100BA0008700080083120313AA0020308400373026
:100BB000FA000408FB000A30FC007A088400831362
:100BC0000008FD00FA0A7B0884007D088000FB0A0B
:100BD000FC0BDD2D1030F0002730F1007908F30117
:100BE000F3077808F201F2070A128A11A1220A1209
:100BF0008A11710883120313A901A9077008A801BB
:100C0000A8071030F0002730F1007908F301F3074E
:100C10007808F201F2070A128A115D220A128A117B
:100C2000710883120313A701A7077008A601A6077E
:100C3000E830F0000330F1002708F301F30726083D
:100C4000F201F2070A128A115D220A128A11710852
:100C500083120313A501A5077008A401A407E830B7
:100C6000F0000330F1002708F301F3072608F20132
:100C7000F2070A128A11A1220A128A11710883123C
:100C80000313A701A7077008A601A6076430F000A8
:100C90000030F1002508F301F3072408F201F20700
:100CA0000A128A115D220A128A1171088312031333
:100CB000A301A3077008A201A2076430F00000306E
:100CC000F1002508F301F3072408F201F2070A12E4
:100CD0008A11A1220A128A11710883120313A50135
:100CE000A5077008A401A4070A30F0000030F10045
:100CF0002308F301F3072208F201F2070A128A110E
:100D00005D220A128A11710883120313A101A1073F
:100D10007008A001A0070A30F0000030F10023089D
:100D2000F301F3072208F201F2070A128A11A12245
:100D30000A128A11710883120313A301A307700812
:100D4000A201A20706302A02031CA72EA82EAD2E50
:100D50000530FA007A08AA00AD2EAA08031DB12EAC
:100D6000B22EB42ECC2ECC2E2A08FA007A07FE3EE4
:100D7000203E840083130008303E0A128A112B2182
:100D80000A128A11013083120313AA02AA08031D52
:100D9000CA2ECB2EB42ECC2E0800003083120313A3
:100DA000B3000030B4000310003003180130B2006B
:100DB0000310003003180130B5000030AF000030E0
:100DC000B0000310003003180130B60003100030EB
:100DD00003180130B100850186018701880189016E
:100DE00031308316031385000F3086009B30870057
:100DF000880189010A128A116E210A128A11823031
:100E00000A128A1137210A128A1101300A128A1134
:100E1000D8210A128A11C4300A128A1137210A1203
:100E20008A112B300A128A11D8210A128A119030A5
:100E3000F0000130F1000A128A1153210A128A11BE
:100E40000A128A11FE200A128A11272F272F8312D5
:100E5000031387192C2F2D2F272F2E2F031000302F
:100E600003180130B6000B303602031C382F392F1F
:100E70003C2F522F522F3C2F87193F2F402F3C2FB2
:100E8000422F422F871D452F462F422F472F0130DB
:100E9000AB002B08B6070B303602031C502F512F26
:100EA0003C2F522F0A128A1144230A128A11203031
:100EB000F0000330F1000A128A1153210A128A113C
:100EC0000A128A111E240A128A110A30F000003018
:100ED000F1000A128A1153210A128A110A128A1188
:100EE000F8240A128A11752F752F8312031387199C
:100EF0007A2F7B2F752F7C2F0310003003180130C1
:100F0000B6000B303602031C862F872F8A2FB92F8D
:100F1000B92F8A2F87198D2F8E2F8A2F902F902FE0
:100F2000871D932F942F902F952F0310071A0314CA
:100F3000003003180130AB00AC0133082B04AD00C6
:100F400034082C04AE000130FF000310AD0DAE0DCF
:100F5000FF0BA52F2D08B3002E08B4000130AB0005
:100F60002B08B6070B303602031CB72FB82F8A2F79
:100F7000B92F01300310B40CB30CFF3E031DBA2F80
:100F80003408AC003308AB0002300310AC0CAB0CDF
:100F9000FF3E031DC52F2B08AD002D08B2003208FF
:100FA0000A128A1119220A128A1183120313AB0042
:100FB0002B08B50000300A128A1137210A128A1153
:100FC000831203133508AB00AC012B08F8002C0882
:100FD000F90005300A128A11D2250A128A118312E9
:100FE000031335080A128A11F1220A128A11752F89
:100FF000752F272F272FFC2FFC2F0A128A1100286C
:02400E00323F3F
:00000001FF
