:100000000A128A11762A00308A000408840A8207BC
:10001000003443347934743472346F346E342034A1
:1000200054346534633468340034503453342F34DA
:10003000323400346634613469346C3400347034E2
:080040006134733473340034A1
:10045400F00070088312031388000800F1010314EC
:10046400F10D00300A128A11D2220A128A110800F0
:10047400C030F5007508F10000300A128A11D2224A
:100484000A128A110800F0007018492A4D2A8312B2
:1004940003138616502A8312031386120800F000F1
:1004A4007018552A592A8312031306165C2A8312DC
:1004B400031306120800F6007608F5007508F1002B
:1004C40001300A128A11D2220A128A110800F60097
:1004D40076088038F5007508F10000300A128A1198
:1004E400D2220A128A110800B701B801B901BA016F
:1004F400BB01BC01BD01BE01BF01C00183010A12E1
:100504008A117B2D8D2A0730F3007D30F200F20B27
:10051400892AF30B892A0130F0020030031CF1030D
:10052400F102FF307106031D992AFF307006031D86
:100534009C2A9D2A852A9E2A080001300A128A11C3
:1005440045220A128A116230F6006530F500F50B77
:10055400A92AF60BA92AAE2A3830F5007508F1004D
:1005640000300A128A11D2220A128A110630F500CA
:100574007508F10000300A128A11D2220A128A1177
:100584000C30F5007508F10000300A128A11D222ED
:100594000A128A110A128A1130220A128A110800D8
:1005A400F40074080A128A1151220A128A1171087D
:1005B4000A128A112A220A128A1101300A128A1195
:1005C40045220A128A110730F3007D30F200F20B43
:1005D400E92AF30BE92A00300A128A1145220A1289
:1005E4008A110D30F300FB30F200F20BF72AF30B03
:1005F400F72AFC2A00300A128A1151220A128A119F
:1006040000300A128A112A220A128A110800F800FC
:100614003C2B780884000A128A1103200A128A11DA
:100624000A3A0319162B172B242B780884000A1274
:100634008A1103200A128A110D3A031D222B232B3F
:100644002A2B242B0A128A113A220A128A11372BD6
:10065400780884000A128A1103200A128A110A12E5
:100664008A115D220A128A11372B0130F7007708AC
:10067400F8073C2B780884000A128A1103200A1216
:100684008A110038031D472B482B0B2B492B0800DC
:10069400F30073085539F00001300310F00DFF3EEC
:1006A400031D4F2B7308F1000310710C55397004AE
:1006B400F2007208F30073083339F00002300310BB
:1006C400F00DFF3E031D612B7308F100023003108F
:1006D400F10CFF3E031D692B710833397004F200DD
:1006E4007208F30073080F39F00004300310F00DA2
:1006F400FF3E031D782B7308F10004300310F10C46
:10070400FF3E031D802B71080F397004F20072083C
:10071400F30073088D2B0800710870040319932BE0
:10072400942BCA2BF5010314F50DA42B01300310EF
:10073400F00DF10DFF3E031D992B0130F4007408F8
:10074400F507A42BF11FA72BA82B982BAA2BAA2BB8
:1007540071087302031DB02B70087202031CB32BC3
:10076400B42BBB2B7008F2027108031CF303F302D1
:10077400BB2B01300310F10CF00CFF3E031DBC2B0E
:100784000130F502031DC72BC82BAA2BCA2BCA2B79
:100794007308F101F1077208F001F007D12B08008A
:1007A4000030F5000030F600710870040319DB2BEB
:1007B400DC2B1A2CF7010314F70DEC2B013003107A
:1007C400F00DF10DFF3E031DE12B0130F400740820
:1007D400F707EC2BF11FEF2BF02BE02BF22BF22B76
:1007E40001300310F50DF60DFF3E031DF32B7108C8
:1007F4007302031DFF2B70087202031C022C032CCE
:100804000B2C7008F2027108031CF303F302751435
:100814000B2C01300310F10CF00CFF3E031D0C2CCB
:100824000130F702031D172C182CF22B1A2C1A2C4A
:100834007608F101F1077508F001F007212C080092
:1008440083120313A20022080139FB007B08A300D2
:100854000310003003180130A10008302102031CEA
:10086400342C352C372C582C582C2208FB00031020
:100874007B0CFC007C08A20022080139FB007B08E9
:10088400A00020082307FB007B08A30023080139EC
:10089400FB007B08A3000130FB007B08A1070830A4
:1008A4002102031C562C572C372C582C2308FB00F0
:1008B400FC017A087C06031D612C79087B06031968
:1008C400642C652C722C40300A128A1169220A1297
:1008D4008A1117300A128A1109230A128A117F2CED
:1008E40040300A128A1169220A128A1112300A123D
:1008F4008A1109230A128A117F2C08008312031318
:10090400AA00203084003730FA000408FB000A30C3
:10091400FC007A08840083130008FD00FA0A7B08AF
:1009240084007D088000FB0AFC0B8B2C1030F00047
:100934002730F1007908F301F3077808F201F20790
:100944000A128A11D2230A128A117108831203131C
:10095400A901A9077008A801A8071030F0002730E2
:10096400F1007908F301F3077808F201F2070A129B
:100974008A118E230A128A11710883120313A701A4
:10098400A7077008A601A607E830F0000330F100BD
:100994002708F301F3072608F201F2070A128A1165
:1009A4008E230A128A11710883120313A501A50765
:1009B4007008A401A407E830F0000330F100270810
:1009C400F301F3072608F201F2070A128A11D2236F
:1009D4000A128A11710883120313A701A70770086A
:1009E400A601A6076430F0000030F1002508F301E9
:1009F400F3072408F201F2070A128A118E230A125D
:100A04008A11710883120313A301A3077008A201BA
:100A1400A2076430F0000030F1002508F301F30769
:100A24002408F201F2070A128A11D2230A128A1147
:100A3400710883120313A501A5077008A401A40774
:100A44000A30F0000030F1002308F301F307220814
:100A5400F201F2070A128A118E230A128A1171080E
:100A640083120313A101A1077008A001A0070A3093
:100A7400F0000030F1002308F301F3072208F2012B
:100A8400F2070A128A11D2230A128A1171088312F8
:100A94000313A301A3077008A201A20706302A02C8
:100AA400031C552D562D5B2D0530FA007A08AA003B
:100AB4005B2DAA08031D5F2D602D622D7A2D7A2DE2
:100AC4002A08FA007A07FE3E203E840083130008B9
:100AD400303E0A128A115D220A128A1101308312F1
:100AE4000313AA02AA08031D782D792D622D7A2DED
:100AF4000800003083120313B4000030B500031063
:100B0400003003180130B200031000300318013024
:100B1400B6000030B0000030B100031000300318FC
:100B24000130B3000310003003180130AF00850119
:100B340086018701880189013130831603138500FA
:100B44000F3086009B308700880189010A128A11C0
:100B54009F220A128A1182300A128A1169220A1209
:100B64008A1101300A128A1109230A128A11C43027
:100B74000A128A1169220A128A110D300A128A1184
:100B840009230A128A11E830F0000330F1000A1236
:100B94008A1184220A128A110A128A1130220A1234
:100BA4008A11D52DD52D831203138719DA2DDB2D48
:100BB400D52DDC2D0310003003180130B3000B30A9
:100BC4003302031CE62DE72DEA2D192E192EEA2DEA
:100BD4008719ED2DEE2DEA2DF02DF02D871DF32D27
:100BE400F42DF02DF52D0310071A0314003003180B
:100BF4000130AB00AC0134082B04AD0035082C04E3
:100C0400AE000130FF000310AD0DAE0DFF0B052E3D
:100C14002D08B4002E08B5000130AB002B08B30733
:100C24000B303302031C172E182EEA2D192E013017
:100C34000310B50CB40CFF3E031D1A2E3508AC008E
:100C44003408AB0002300310AC0CAB0CFF3E031DA8
:100C5400252E2B08AD002D08B20032080A128A1185
:100C64004A230A128A1183120313AB002B08B6001D
:100C740000300A128A1169220A128A11831203139C
:100C84003608AB00AC012B08F8002C08F90005303D
:100C94000A128A1180240A128A1183120313350856
:100CA400AC003408AB0001300310AC0CAB0CFF3EBD
:100CB400031D562E01302B05B00000302C05B10069
:100CC4003108FA01FA073008F901F90736080A125F
:100CD4008A1122240A128A118312031336080A1273
:100CE4008A1186260A128A11F430F0000130F100CC
:100CF4000A128A1184220A128A11D52DD52D822E28
:100D0400822E0A128A110028F70008300A128A116A
:100D140069220A128A1177081C3A031D922E932E17
:100D24009A2E41300A128A115D220A128A11FF2F6B
:100D34007708323A031D9F2EA02EA72E42300A12A6
:100D44008A115D220A128A11FF2F7708213A031DA6
:100D5400AC2EAD2EB42E43300A128A115D220A1233
:100D64008A11FF2F7708233A031DB92EBA2EC12EFC
:100D740044300A128A115D220A128A11FF2F770861
:100D8400243A031DC62EC72ECE2E45300A128A11D0
:100D94005D220A128A11FF2F77082B3A031DD32EE6
:100DA400D42EDB2E46300A128A115D220A128A11D1
:100DB400FF2F7708343A031DE02EE12EE82E47304A
:100DC4000A128A115D220A128A11FF2F7708333A18
:100DD400031DED2EEE2EF52E48300A128A115D22E7
:100DE4000A128A11FF2F7708433A031DFA2EFB2EAD
:100DF400022F49300A128A115D220A128A11FF2F2A
:100E040077083B3A031D072F082F0F2F4A300A1289
:100E14008A115D220A128A11FF2F7708423A031DB4
:100E2400142F152F1C2F4B300A128A115D220A121F
:100E34008A11FF2F77084B3A031D212F222F292FC8
:100E44004C300A128A115D220A128A11FF2F770888
:100E54003A3A031D2E2F2F2F362F4D300A128A11A6
:100E64005D220A128A11FF2F7708313A031D3B2FA6
:100E74003C2F432F4E300A128A115D220A128A1126
:100E8400FF2F7708443A031D482F492F502F4F3026
:100E94000A128A115D220A128A11FF2F77084D3A2D
:100EA400031D552F562F5D2F50300A128A115D22D3
:100EB4000A128A11FF2F7708153A031D622F632F38
:100EC4006A2F51300A128A115D220A128A11FF2FE9
:100ED40077082D3A031D6F2F702F772F52300A1287
:100EE4008A115D220A128A11FF2F77081B3A031D0B
:100EF4007C2F7D2F842F53300A128A115D220A120F
:100F04008A11FF2F77082C3A031D892F8A2F912FDE
:100F140054300A128A115D220A128A11FF2F7708AF
:100F24003C3A031D962F972F9E2F55300A128A1193
:100F34005D220A128A11FF2F77082A3A031DA32F74
:100F4400A42FAB2F56300A128A115D220A128A117D
:100F5400FF2F77081D3A031DB02FB12FB82F57303C
:100F64000A128A115D220A128A11FF2F7708223A87
:100F7400031DBD2FBE2FC52F58300A128A115D22C2
:100F84000A128A11FF2F7708353A031DCA2FCB2F77
:100F9400D22F59300A128A115D220A128A11FF2FA8
:100FA40077081A3A031DD72FD82FDF2F5A300A1289
:100FB4008A115D220A128A11FF2F20300A128A1127
:100FC4005D220A128A11FF2FFF2FFF2FFF2FFF2F01
:100FD400FF2FFF2FFF2FFF2FFF2FFF2FFF2FFF2F9D
:100FE400FF2FFF2FFF2FFF2FFF2FFF2FFF2FFF2F8D
:0C0FF400FF2FFF2FFF2FFF2FFF2F080003
:02400E00323F3F
:00000001FF
